{
  "abi": [
    {
      "inputs": [
        {
          "internalType": "address",
          "name": "_collateral",
          "type": "address"
        },
        {
          "internalType": "address",
          "name": "_ctf",
          "type": "address"
        },
        {
          "internalType": "address",
          "name": "_proxyFactory",
          "type": "address"
        },
        {
          "internalType": "address",
          "name": "_safeFactory",
          "type": "address"
        }
      ],
      "stateMutability": "nonpayable",
      "type": "constructor"
    },
    {
      "inputs": [],
      "name": "AlreadyRegistered",
      "type": "error"
    },
    {
      "inputs": [],
      "name": "FeeTooHigh",
      "type": "error"
    },
    {
      "inputs": [],
      "name": "InvalidComplement",
      "type": "error"
    },
    {
      "inputs": [],
      "name": "InvalidNonce",
      "type": "error"
    },
    {
      "inputs": [],
      "name": "InvalidSignature",
      "type": "error"
    },
    {
      "inputs": [],
      "name": "InvalidTokenId",
      "type": "error"
    },
    {
      "inputs": [],
      "name": "MakingGtRemaining",
      "type": "error"
    },
    {
      "inputs": [],
      "name": "MismatchedTokenIds",
      "type": "error"
    },
    {
      "inputs": [],
      "name": "NotAdmin",
      "type": "error"
    },
    {
      "inputs": [],
      "name": "NotCrossing",
      "type": "error"
    },
    {
      "inputs": [],
      "name": "NotOperator",
      "type": "error"
    },
    {
      "inputs": [],
      "name": "NotOwner",
      "type": "error"
    },
    {
      "inputs": [],
      "name": "NotTaker",
      "type": "error"
    },
    {
      "inputs": [],
      "name": "OrderExpired",
      "type": "error"
    },
    {
      "inputs": [],
      "name": "OrderFilledOrCancelled",
      "type": "error"
    },
    {
      "inputs": [],
      "name": "Paused",
      "type": "error"
    },
    {
      "inputs": [],
      "name": "TooLittleTokensReceived",
      "type": "error"
    },
    {
      "anonymous": false,
      "inputs": [
        {
          "indexed": true,
          "internalType": "address",
          "name": "receiver",
          "type": "address"
        },
        {
          "indexed": false,
          "internalType": "uint256",
          "name": "tokenId",
          "type": "uint256"
        },
        {
          "indexed": false,
          "internalType": "uint256",
          "name": "amount",
          "type": "uint256"
        }
      ],
      "name": "FeeCharged",
      "type": "event"
    },
    {
      "anonymous": false,
      "inputs": [
        {
          "indexed": true,
          "internalType": "address",
          "name": "newAdminAddress",
          "type": "address"
        },
        {
          "indexed": true,
          "internalType": "address",
          "name": "admin",
          "type": "address"
        }
      ],
      "name": "NewAdmin",
      "type": "event"
    },
    {
      "anonymous": false,
      "inputs": [
        {
          "indexed": true,
          "internalType": "address",
          "name": "newOperatorAddress",
          "type": "address"
        },
        {
          "indexed": true,
          "internalType": "address",
          "name": "admin",
          "type": "address"
        }
      ],
      "name": "NewOperator",
      "type": "event"
    },
    {
      "anonymous": false,
      "inputs": [
        {
          "indexed": true,
          "internalType": "bytes32",
          "name": "orderHash",
          "type": "bytes32"
        }
      ],
      "name": "OrderCancelled",
      "type": "event"
    },
    {
      "anonymous": false,
      "inputs": [
        {
          "indexed": true,
          "internalType": "bytes32",
          "name": "orderHash",
          "type": "bytes32"
        },
        {
          "indexed": true,
          "internalType": "address",
          "name": "maker",
          "type": "address"
        },
        {
          "indexed": true,
          "internalType": "address",
          "name": "taker",
          "type": "address"
        },
        {
          "indexed": false,
          "internalType": "uint256",
          "name": "makerAssetId",
          "type": "uint256"
        },
        {
          "indexed": false,
          "internalType": "uint256",
          "name": "takerAssetId",
          "type": "uint256"
        },
        {
          "indexed": false,
          "internalType": "uint256",
          "name": "makerAmountFilled",
          "type": "uint256"
        },
        {
          "indexed": false,
          "internalType": "uint256",
          "name": "takerAmountFilled",
          "type": "uint256"
        },
        {
          "indexed": false,
          "internalType": "uint256",
          "name": "fee",
          "type": "uint256"
        }
      ],
      "name": "OrderFilled",
      "type": "event"
    },
    {
      "anonymous": false,
      "inputs": [
        {
          "indexed": true,
          "internalType": "bytes32",
          "name": "takerOrderHash",
          "type": "bytes32"
        },
        {
          "indexed": true,
          "internalType": "address",
          "name": "takerOrderMaker",
          "type": "address"
        },
        {
          "indexed": false,
          "internalType": "uint256",
          "name": "makerAssetId",
          "type": "uint256"
        },
        {
          "indexed": false,
          "internalType": "uint256",
          "name": "takerAssetId",
          "type": "uint256"
        },
        {
          "indexed": false,
          "internalType": "uint256",
          "name": "makerAmountFilled",
          "type": "uint256"
        },
        {
          "indexed": false,
          "internalType": "uint256",
          "name": "takerAmountFilled",
          "type": "uint256"
        }
      ],
      "name": "OrdersMatched",
      "type": "event"
    },
    {
      "anonymous": false,
      "inputs": [
        {
          "indexed": true,
          "internalType": "address",
          "name": "oldProxyFactory",
          "type": "address"
        },
        {
          "indexed": true,
          "internalType": "address",
          "name": "newProxyFactory",
          "type": "address"
        }
      ],
      "name": "ProxyFactoryUpdated",
      "type": "event"
    },
    {
      "anonymous": false,
      "inputs": [
        {
          "indexed": true,
          "internalType": "address",
          "name": "removedAdmin",
          "type": "address"
        },
        {
          "indexed": true,
          "internalType": "address",
          "name": "admin",
          "type": "address"
        }
      ],
      "name": "RemovedAdmin",
      "type": "event"
    },
    {
      "anonymous": false,
      "inputs": [
        {
          "indexed": true,
          "internalType": "address",
          "name": "removedOperator",
          "type": "address"
        },
        {
          "indexed": true,
          "internalType": "address",
          "name": "admin",
          "type": "address"
        }
      ],
      "name": "RemovedOperator",
      "type": "event"
    },
    {
      "anonymous": false,
      "inputs": [
        {
          "indexed": true,
          "internalType": "address",
          "name": "oldSafeFactory",
          "type": "address"
        },
        {
          "indexed": true,
          "internalType": "address",
          "name": "newSafeFactory",
          "type": "address"
        }
      ],
      "name": "SafeFactoryUpdated",
      "type": "event"
    },
    {
      "anonymous": false,
      "inputs": [
        {
          "indexed": true,
          "internalType": "uint256",
          "name": "token0",
          "type": "uint256"
        },
        {
          "indexed": true,
          "internalType": "uint256",
          "name": "token1",
          "type": "uint256"
        },
        {
          "indexed": true,
          "internalType": "bytes32",
          "name": "conditionId",
          "type": "bytes32"
        }
      ],
      "name": "TokenRegistered",
      "type": "event"
    },
    {
      "anonymous": false,
      "inputs": [
        {
          "indexed": true,
          "internalType": "address",
          "name": "pauser",
          "type": "address"
        }
      ],
      "name": "TradingPaused",
      "type": "event"
    },
    {
      "anonymous": false,
      "inputs": [
        {
          "indexed": true,
          "internalType": "address",
          "name": "pauser",
          "type": "address"
        }
      ],
      "name": "TradingUnpaused",
      "type": "event"
    },
    {
      "inputs": [
        {
          "internalType": "address",
          "name": "admin_",
          "type": "address"
        }
      ],
      "name": "addAdmin",
      "outputs": [],
      "stateMutability": "nonpayable",
      "type": "function"
    },
    {
      "inputs": [
        {
          "internalType": "address",
          "name": "operator_",
          "type": "address"
        }
      ],
      "name": "addOperator",
      "outputs": [],
      "stateMutability": "nonpayable",
      "type": "function"
    },
    {
      "inputs": [
        {
          "internalType": "address",
          "name": "",
          "type": "address"
        }
      ],
      "name": "admins",
      "outputs": [
        {
          "internalType": "uint256",
          "name": "",
          "type": "uint256"
        }
      ],
      "stateMutability": "view",
      "type": "function"
    },
    {
      "inputs": [
        {
          "components": [
            {
              "internalType": "uint256",
              "name": "salt",
              "type": "uint256"
            },
            {
              "internalType": "address",
              "name": "maker",
              "type": "address"
            },
            {
              "internalType": "address",
              "name": "signer",
              "type": "address"
            },
            {
              "internalType": "address",
              "name": "taker",
              "type": "address"
            },
            {
              "internalType": "uint256",
              "name": "tokenId",
              "type": "uint256"
            },
            {
              "internalType": "uint256",
              "name": "makerAmount",
              "type": "uint256"
            },
            {
              "internalType": "uint256",
              "name": "takerAmount",
              "type": "uint256"
            },
            {
              "internalType": "uint256",
              "name": "expiration",
              "type": "uint256"
            },
            {
              "internalType": "uint256",
              "name": "nonce",
              "type": "uint256"
            },
            {
              "internalType": "uint256",
              "name": "feeRateBps",
              "type": "uint256"
            },
            {
              "internalType": "enum Side",
              "name": "side",
              "type": "uint8"
            },
            {
              "internalType": "enum SignatureType",
              "name": "signatureType",
              "type": "uint8"
            },
            {
              "internalType": "bytes",
              "name": "signature",
              "type": "bytes"
            }
          ],
          "internalType": "struct Order",
          "name": "order",
          "type": "tuple"
        }
      ],
      "name": "cancelOrder",
      "outputs": [],
      "stateMutability": "nonpayable",
      "type": "function"
    },
    {
      "inputs": [
        {
          "components": [
            {
              "internalType": "uint256",
              "name": "salt",
              "type": "uint256"
            },
            {
              "internalType": "address",
              "name": "maker",
              "type": "address"
            },
            {
              "internalType": "address",
              "name": "signer",
              "type": "address"
            },
            {
              "internalType": "address",
              "name": "taker",
              "type": "address"
            },
            {
              "internalType": "uint256",
              "name": "tokenId",
              "type": "uint256"
            },
            {
              "internalType": "uint256",
              "name": "makerAmount",
              "type": "uint256"
            },
            {
              "internalType": "uint256",
              "name": "takerAmount",
              "type": "uint256"
            },
            {
              "internalType": "uint256",
              "name": "expiration",
              "type": "uint256"
            },
            {
              "internalType": "uint256",
              "name": "nonce",
              "type": "uint256"
            },
            {
              "internalType": "uint256",
              "name": "feeRateBps",
              "type": "uint256"
            },
            {
              "internalType": "enum Side",
              "name": "side",
              "type": "uint8"
            },
            {
              "internalType": "enum SignatureType",
              "name": "signatureType",
              "type": "uint8"
            },
            {
              "internalType": "bytes",
              "name": "signature",
              "type": "bytes"
            }
          ],
          "internalType": "struct Order[]",
          "name": "orders",
          "type": "tuple[]"
        }
      ],
      "name": "cancelOrders",
      "outputs": [],
      "stateMutability": "nonpayable",
      "type": "function"
    },
    {
      "inputs": [],
      "name": "domainSeparator",
      "outputs": [
        {
          "internalType": "bytes32",
          "name": "",
          "type": "bytes32"
        }
      ],
      "stateMutability": "view",
      "type": "function"
    },
    {
      "inputs": [
        {
          "components": [
            {
              "internalType": "uint256",
              "name": "salt",
              "type": "uint256"
            },
            {
              "internalType": "address",
              "name": "maker",
              "type": "address"
            },
            {
              "internalType": "address",
              "name": "signer",
              "type": "address"
            },
            {
              "internalType": "address",
              "name": "taker",
              "type": "address"
            },
            {
              "internalType": "uint256",
              "name": "tokenId",
              "type": "uint256"
            },
            {
              "internalType": "uint256",
              "name": "makerAmount",
              "type": "uint256"
            },
            {
              "internalType": "uint256",
              "name": "takerAmount",
              "type": "uint256"
            },
            {
              "internalType": "uint256",
              "name": "expiration",
              "type": "uint256"
            },
            {
              "internalType": "uint256",
              "name": "nonce",
              "type": "uint256"
            },
            {
              "internalType": "uint256",
              "name": "feeRateBps",
              "type": "uint256"
            },
            {
              "internalType": "enum Side",
              "name": "side",
              "type": "uint8"
            },
            {
              "internalType": "enum SignatureType",
              "name": "signatureType",
              "type": "uint8"
            },
            {
              "internalType": "bytes",
              "name": "signature",
              "type": "bytes"
            }
          ],
          "internalType": "struct Order",
          "name": "order",
          "type": "tuple"
        },
        {
          "internalType": "uint256",
          "name": "fillAmount",
          "type": "uint256"
        }
      ],
      "name": "fillOrder",
      "outputs": [],
      "stateMutability": "nonpayable",
      "type": "function"
    },
    {
      "inputs": [
        {
          "components": [
            {
              "internalType": "uint256",
              "name": "salt",
              "type": "uint256"
            },
            {
              "internalType": "address",
              "name": "maker",
              "type": "address"
            },
            {
              "internalType": "address",
              "name": "signer",
              "type": "address"
            },
            {
              "internalType": "address",
              "name": "taker",
              "type": "address"
            },
            {
              "internalType": "uint256",
              "name": "tokenId",
              "type": "uint256"
            },
            {
              "internalType": "uint256",
              "name": "makerAmount",
              "type": "uint256"
            },
            {
              "internalType": "uint256",
              "name": "takerAmount",
              "type": "uint256"
            },
            {
              "internalType": "uint256",
              "name": "expiration",
              "type": "uint256"
            },
            {
              "internalType": "uint256",
              "name": "nonce",
              "type": "uint256"
            },
            {
              "internalType": "uint256",
              "name": "feeRateBps",
              "type": "uint256"
            },
            {
              "internalType": "enum Side",
              "name": "side",
              "type": "uint8"
            },
            {
              "internalType": "enum SignatureType",
              "name": "signatureType",
              "type": "uint8"
            },
            {
              "internalType": "bytes",
              "name": "signature",
              "type": "bytes"
            }
          ],
          "internalType": "struct Order[]",
          "name": "orders",
          "type": "tuple[]"
        },
        {
          "internalType": "uint256[]",
          "name": "fillAmounts",
          "type": "uint256[]"
        }
      ],
      "name": "fillOrders",
      "outputs": [],
      "stateMutability": "nonpayable",
      "type": "function"
    },
    {
      "inputs": [],
      "name": "getCollateral",
      "outputs": [
        {
          "internalType": "address",
          "name": "",
          "type": "address"
        }
      ],
      "stateMutability": "view",
      "type": "function"
    },
    {
      "inputs": [
        {
          "internalType": "uint256",
          "name": "token",
          "type": "uint256"
        }
      ],
      "name": "getComplement",
      "outputs": [
        {
          "internalType": "uint256",
          "name": "",
          "type": "uint256"
        }
      ],
      "stateMutability": "view",
      "type": "function"
    },
    {
      "inputs": [
        {
          "internalType": "uint256",
          "name": "token",
          "type": "uint256"
        }
      ],
      "name": "getConditionId",
      "outputs": [
        {
          "internalType": "bytes32",
          "name": "",
          "type": "bytes32"
        }
      ],
      "stateMutability": "view",
      "type": "function"
    },
    {
      "inputs": [],
      "name": "getCtf",
      "outputs": [
        {
          "internalType": "address",
          "name": "",
          "type": "address"
        }
      ],
      "stateMutability": "view",
      "type": "function"
    },
    {
      "inputs": [],
      "name": "getMaxFeeRate",
      "outputs": [
        {
          "internalType": "uint256",
          "name": "",
          "type": "uint256"
        }
      ],
      "stateMutability": "pure",
      "type": "function"
    },
    {
      "inputs": [
        {
          "internalType": "bytes32",
          "name": "orderHash",
          "type": "bytes32"
        }
      ],
      "name": "getOrderStatus",
      "outputs": [
        {
          "components": [
            {
              "internalType": "bool",
              "name": "isFilledOrCancelled",
              "type": "bool"
            },
            {
              "internalType": "uint256",
              "name": "remaining",
              "type": "uint256"
            }
          ],
          "internalType": "struct OrderStatus",
          "name": "",
          "type": "tuple"
        }
      ],
      "stateMutability": "view",
      "type": "function"
    },
    {
      "inputs": [],
      "name": "getPolyProxyFactoryImplementation",
      "outputs": [
        {
          "internalType": "address",
          "name": "",
          "type": "address"
        }
      ],
      "stateMutability": "view",
      "type": "function"
    },
    {
      "inputs": [
        {
          "internalType": "address",
          "name": "_addr",
          "type": "address"
        }
      ],
      "name": "getPolyProxyWalletAddress",
      "outputs": [
        {
          "internalType": "address",
          "name": "",
          "type": "address"
        }
      ],
      "stateMutability": "view",
      "type": "function"
    },
    {
      "inputs": [],
      "name": "getProxyFactory",
      "outputs": [
        {
          "internalType": "address",
          "name": "",
          "type": "address"
        }
      ],
      "stateMutability": "view",
      "type": "function"
    },
    {
      "inputs": [
        {
          "internalType": "address",
          "name": "_addr",
          "type": "address"
        }
      ],
      "name": "getSafeAddress",
      "outputs": [
        {
          "internalType": "address",
          "name": "",
          "type": "address"
        }
      ],
      "stateMutability": "view",
      "type": "function"
    },
    {
      "inputs": [],
      "name": "getSafeFactory",
      "outputs": [
        {
          "internalType": "address",
          "name": "",
          "type": "address"
        }
      ],
      "stateMutability": "view",
      "type": "function"
    },
    {
      "inputs": [],
      "name": "getSafeFactoryImplementation",
      "outputs": [
        {
          "internalType": "address",
          "name": "",
          "type": "address"
        }
      ],
      "stateMutability": "view",
      "type": "function"
    },
    {
      "inputs": [
        {
          "components": [
            {
              "internalType": "uint256",
              "name": "salt",
              "type": "uint256"
            },
            {
              "internalType": "address",
              "name": "maker",
              "type": "address"
            },
            {
              "internalType": "address",
              "name": "signer",
              "type": "address"
            },
            {
              "internalType": "address",
              "name": "taker",
              "type": "address"
            },
            {
              "internalType": "uint256",
              "name": "tokenId",
              "type": "uint256"
            },
            {
              "internalType": "uint256",
              "name": "makerAmount",
              "type": "uint256"
            },
            {
              "internalType": "uint256",
              "name": "takerAmount",
              "type": "uint256"
            },
            {
              "internalType": "uint256",
              "name": "expiration",
              "type": "uint256"
            },
            {
              "internalType": "uint256",
              "name": "nonce",
              "type": "uint256"
            },
            {
              "internalType": "uint256",
              "name": "feeRateBps",
              "type": "uint256"
            },
            {
              "internalType": "enum Side",
              "name": "side",
              "type": "uint8"
            },
            {
              "internalType": "enum SignatureType",
              "name": "signatureType",
              "type": "uint8"
            },
            {
              "internalType": "bytes",
              "name": "signature",
              "type": "bytes"
            }
          ],
          "internalType": "struct Order",
          "name": "order",
          "type": "tuple"
        }
      ],
      "name": "hashOrder",
      "outputs": [
        {
          "internalType": "bytes32",
          "name": "",
          "type": "bytes32"
        }
      ],
      "stateMutability": "view",
      "type": "function"
    },
    {
      "inputs": [],
      "name": "incrementNonce",
      "outputs": [],
      "stateMutability": "nonpayable",
      "type": "function"
    },
    {
      "inputs": [
        {
          "internalType": "address",
          "name": "usr",
          "type": "address"
        }
      ],
      "name": "isAdmin",
      "outputs": [
        {
          "internalType": "bool",
          "name": "",
          "type": "bool"
        }
      ],
      "stateMutability": "view",
      "type": "function"
    },
    {
      "inputs": [
        {
          "internalType": "address",
          "name": "usr",
          "type": "address"
        }
      ],
      "name": "isOperator",
      "outputs": [
        {
          "internalType": "bool",
          "name": "",
          "type": "bool"
        }
      ],
      "stateMutability": "view",
      "type": "function"
    },
    {
      "inputs": [
        {
          "internalType": "address",
          "name": "usr",
          "type": "address"
        },
        {
          "internalType": "uint256",
          "name": "nonce",
          "type": "uint256"
        }
      ],
      "name": "isValidNonce",
      "outputs": [
        {
          "internalType": "bool",
          "name": "",
          "type": "bool"
        }
      ],
      "stateMutability": "view",
      "type": "function"
    },
    {
      "inputs": [
        {
          "components": [
            {
              "internalType": "uint256",
              "name": "salt",
              "type": "uint256"
            },
            {
              "internalType": "address",
              "name": "maker",
              "type": "address"
            },
            {
              "internalType": "address",
              "name": "signer",
              "type": "address"
            },
            {
              "internalType": "address",
              "name": "taker",
              "type": "address"
            },
            {
              "internalType": "uint256",
              "name": "tokenId",
              "type": "uint256"
            },
            {
              "internalType": "uint256",
              "name": "makerAmount",
              "type": "uint256"
            },
            {
              "internalType": "uint256",
              "name": "takerAmount",
              "type": "uint256"
            },
            {
              "internalType": "uint256",
              "name": "expiration",
              "type": "uint256"
            },
            {
              "internalType": "uint256",
              "name": "nonce",
              "type": "uint256"
            },
            {
              "internalType": "uint256",
              "name": "feeRateBps",
              "type": "uint256"
            },
            {
              "internalType": "enum Side",
              "name": "side",
              "type": "uint8"
            },
            {
              "internalType": "enum SignatureType",
              "name": "signatureType",
              "type": "uint8"
            },
            {
              "internalType": "bytes",
              "name": "signature",
              "type": "bytes"
            }
          ],
          "internalType": "struct Order",
          "name": "takerOrder",
          "type": "tuple"
        },
        {
          "components": [
            {
              "internalType": "uint256",
              "name": "salt",
              "type": "uint256"
            },
            {
              "internalType": "address",
              "name": "maker",
              "type": "address"
            },
            {
              "internalType": "address",
              "name": "signer",
              "type": "address"
            },
            {
              "internalType": "address",
              "name": "taker",
              "type": "address"
            },
            {
              "internalType": "uint256",
              "name": "tokenId",
              "type": "uint256"
            },
            {
              "internalType": "uint256",
              "name": "makerAmount",
              "type": "uint256"
            },
            {
              "internalType": "uint256",
              "name": "takerAmount",
              "type": "uint256"
            },
            {
              "internalType": "uint256",
              "name": "expiration",
              "type": "uint256"
            },
            {
              "internalType": "uint256",
              "name": "nonce",
              "type": "uint256"
            },
            {
              "internalType": "uint256",
              "name": "feeRateBps",
              "type": "uint256"
            },
            {
              "internalType": "enum Side",
              "name": "side",
              "type": "uint8"
            },
            {
              "internalType": "enum SignatureType",
              "name": "signatureType",
              "type": "uint8"
            },
            {
              "internalType": "bytes",
              "name": "signature",
              "type": "bytes"
            }
          ],
          "internalType": "struct Order[]",
          "name": "makerOrders",
          "type": "tuple[]"
        },
        {
          "internalType": "uint256",
          "name": "takerFillAmount",
          "type": "uint256"
        },
        {
          "internalType": "uint256[]",
          "name": "makerFillAmounts",
          "type": "uint256[]"
        }
      ],
      "name": "matchOrders",
      "outputs": [],
      "stateMutability": "nonpayable",
      "type": "function"
    },
    {
      "inputs": [
        {
          "internalType": "address",
          "name": "",
          "type": "address"
        }
      ],
      "name": "nonces",
      "outputs": [
        {
          "internalType": "uint256",
          "name": "",
          "type": "uint256"
        }
      ],
      "stateMutability": "view",
      "type": "function"
    },
    {
      "inputs": [
        {
          "internalType": "address",
          "name": "",
          "type": "address"
        },
        {
          "internalType": "address",
          "name": "",
          "type": "address"
        },
        {
          "internalType": "uint256[]",
          "name": "",
          "type": "uint256[]"
        },
        {
          "internalType": "uint256[]",
          "name": "",
          "type": "uint256[]"
        },
        {
          "internalType": "bytes",
          "name": "",
          "type": "bytes"
        }
      ],
      "name": "onERC1155BatchReceived",
      "outputs": [
        {
          "internalType": "bytes4",
          "name": "",
          "type": "bytes4"
        }
      ],
      "stateMutability": "nonpayable",
      "type": "function"
    },
    {
      "inputs": [
        {
          "internalType": "address",
          "name": "",
          "type": "address"
        },
        {
          "internalType": "address",
          "name": "",
          "type": "address"
        },
        {
          "internalType": "uint256",
          "name": "",
          "type": "uint256"
        },
        {
          "internalType": "uint256",
          "name": "",
          "type": "uint256"
        },
        {
          "internalType": "bytes",
          "name": "",
          "type": "bytes"
        }
      ],
      "name": "onERC1155Received",
      "outputs": [
        {
          "internalType": "bytes4",
          "name": "",
          "type": "bytes4"
        }
      ],
      "stateMutability": "nonpayable",
      "type": "function"
    },
    {
      "inputs": [
        {
          "internalType": "address",
          "name": "",
          "type": "address"
        }
      ],
      "name": "operators",
      "outputs": [
        {
          "internalType": "uint256",
          "name": "",
          "type": "uint256"
        }
      ],
      "stateMutability": "view",
      "type": "function"
    },
    {
      "inputs": [
        {
          "internalType": "bytes32",
          "name": "",
          "type": "bytes32"
        }
      ],
      "name": "orderStatus",
      "outputs": [
        {
          "internalType": "bool",
          "name": "isFilledOrCancelled",
          "type": "bool"
        },
        {
          "internalType": "uint256",
          "name": "remaining",
          "type": "uint256"
        }
      ],
      "stateMutability": "view",
      "type": "function"
    },
    {
      "inputs": [],
      "name": "parentCollectionId",
      "outputs": [
        {
          "internalType": "bytes32",
          "name": "",
          "type": "bytes32"
        }
      ],
      "stateMutability": "view",
      "type": "function"
    },
    {
      "inputs": [],
      "name": "pauseTrading",
      "outputs": [],
      "stateMutability": "nonpayable",
      "type": "function"
    },
    {
      "inputs": [],
      "name": "paused",
      "outputs": [
        {
          "internalType": "bool",
          "name": "",
          "type": "bool"
        }
      ],
      "stateMutability": "view",
      "type": "function"
    },
    {
      "inputs": [],
      "name": "proxyFactory",
      "outputs": [
        {
          "internalType": "address",
          "name": "",
          "type": "address"
        }
      ],
      "stateMutability": "view",
      "type": "function"
    },
    {
      "inputs": [
        {
          "internalType": "uint256",
          "name": "token",
          "type": "uint256"
        },
        {
          "internalType": "uint256",
          "name": "complement",
          "type": "uint256"
        },
        {
          "internalType": "bytes32",
          "name": "conditionId",
          "type": "bytes32"
        }
      ],
      "name": "registerToken",
      "outputs": [],
      "stateMutability": "nonpayable",
      "type": "function"
    },
    {
      "inputs": [
        {
          "internalType": "uint256",
          "name": "",
          "type": "uint256"
        }
      ],
      "name": "registry",
      "outputs": [
        {
          "internalType": "uint256",
          "name": "complement",
          "type": "uint256"
        },
        {
          "internalType": "bytes32",
          "name": "conditionId",
          "type": "bytes32"
        }
      ],
      "stateMutability": "view",
      "type": "function"
    },
    {
      "inputs": [
        {
          "internalType": "address",
          "name": "admin",
          "type": "address"
        }
      ],
      "name": "removeAdmin",
      "outputs": [],
      "stateMutability": "nonpayable",
      "type": "function"
    },
    {
      "inputs": [
        {
          "internalType": "address",
          "name": "operator",
          "type": "address"
        }
      ],
      "name": "removeOperator",
      "outputs": [],
      "stateMutability": "nonpayable",
      "type": "function"
    },
    {
      "inputs": [],
      "name": "renounceAdminRole",
      "outputs": [],
      "stateMutability": "nonpayable",
      "type": "function"
    },
    {
      "inputs": [],
      "name": "renounceOperatorRole",
      "outputs": [],
      "stateMutability": "nonpayable",
      "type": "function"
    },
    {
      "inputs": [],
      "name": "safeFactory",
      "outputs": [
        {
          "internalType": "address",
          "name": "",
          "type": "address"
        }
      ],
      "stateMutability": "view",
      "type": "function"
    },
    {
      "inputs": [
        {
          "internalType": "address",
          "name": "_newProxyFactory",
          "type": "address"
        }
      ],
      "name": "setProxyFactory",
      "outputs": [],
      "stateMutability": "nonpayable",
      "type": "function"
    },
    {
      "inputs": [
        {
          "internalType": "address",
          "name": "_newSafeFactory",
          "type": "address"
        }
      ],
      "name": "setSafeFactory",
      "outputs": [],
      "stateMutability": "nonpayable",
      "type": "function"
    },
    {
      "inputs": [
        {
          "internalType": "bytes4",
          "name": "interfaceId",
          "type": "bytes4"
        }
      ],
      "name": "supportsInterface",
      "outputs": [
        {
          "internalType": "bool",
          "name": "",
          "type": "bool"
        }
      ],
      "stateMutability": "view",
      "type": "function"
    },
    {
      "inputs": [],
      "name": "unpauseTrading",
      "outputs": [],
      "stateMutability": "nonpayable",
      "type": "function"
    },
    {
      "inputs": [
        {
          "internalType": "uint256",
          "name": "token",
          "type": "uint256"
        },
        {
          "internalType": "uint256",
          "name": "complement",
          "type": "uint256"
        }
      ],
      "name": "validateComplement",
      "outputs": [],
      "stateMutability": "view",
      "type": "function"
    },
    {
      "inputs": [
        {
          "components": [
            {
              "internalType": "uint256",
              "name": "salt",
              "type": "uint256"
            },
            {
              "internalType": "address",
              "name": "maker",
              "type": "address"
            },
            {
              "internalType": "address",
              "name": "signer",
              "type": "address"
            },
            {
              "internalType": "address",
              "name": "taker",
              "type": "address"
            },
            {
              "internalType": "uint256",
              "name": "tokenId",
              "type": "uint256"
            },
            {
              "internalType": "uint256",
              "name": "makerAmount",
              "type": "uint256"
            },
            {
              "internalType": "uint256",
              "name": "takerAmount",
              "type": "uint256"
            },
            {
              "internalType": "uint256",
              "name": "expiration",
              "type": "uint256"
            },
            {
              "internalType": "uint256",
              "name": "nonce",
              "type": "uint256"
            },
            {
              "internalType": "uint256",
              "name": "feeRateBps",
              "type": "uint256"
            },
            {
              "internalType": "enum Side",
              "name": "side",
              "type": "uint8"
            },
            {
              "internalType": "enum SignatureType",
              "name": "signatureType",
              "type": "uint8"
            },
            {
              "internalType": "bytes",
              "name": "signature",
              "type": "bytes"
            }
          ],
          "internalType": "struct Order",
          "name": "order",
          "type": "tuple"
        }
      ],
      "name": "validateOrder",
      "outputs": [],
      "stateMutability": "view",
      "type": "function"
    },
    {
      "inputs": [
        {
          "internalType": "bytes32",
          "name": "orderHash",
          "type": "bytes32"
        },
        {
          "components": [
            {
              "internalType": "uint256",
              "name": "salt",
              "type": "uint256"
            },
            {
              "internalType": "address",
              "name": "maker",
              "type": "address"
            },
            {
              "internalType": "address",
              "name": "signer",
              "type": "address"
            },
            {
              "internalType": "address",
              "name": "taker",
              "type": "address"
            },
            {
              "internalType": "uint256",
              "name": "tokenId",
              "type": "uint256"
            },
            {
              "internalType": "uint256",
              "name": "makerAmount",
              "type": "uint256"
            },
            {
              "internalType": "uint256",
              "name": "takerAmount",
              "type": "uint256"
            },
            {
              "internalType": "uint256",
              "name": "expiration",
              "type": "uint256"
            },
            {
              "internalType": "uint256",
              "name": "nonce",
              "type": "uint256"
            },
            {
              "internalType": "uint256",
              "name": "feeRateBps",
              "type": "uint256"
            },
            {
              "internalType": "enum Side",
              "name": "side",
              "type": "uint8"
            },
            {
              "internalType": "enum SignatureType",
              "name": "signatureType",
              "type": "uint8"
            },
            {
              "internalType": "bytes",
              "name": "signature",
              "type": "bytes"
            }
          ],
          "internalType": "struct Order",
          "name": "order",
          "type": "tuple"
        }
      ],
      "name": "validateOrderSignature",
      "outputs": [],
      "stateMutability": "view",
      "type": "function"
    },
    {
      "inputs": [
        {
          "internalType": "uint256",
          "name": "tokenId",
          "type": "uint256"
        }
      ],
      "name": "validateTokenId",
      "outputs": [],
      "stateMutability": "view",
      "type": "function"
    }
  ],
  "bytecode": {
    "object": "0x6101a060405260016000556003805460ff191690553480156200002157600080fd5b506040516200473f3803806200473f8339810160408190526200004491620002d6565b604080518082018252601781527f506f6c796d61726b6574204354462045786368616e67650000000000000000006020808301918252835180850185526001808252603160f81b82840190815233600090815282855287812083905560028552879020919091558451909320815190932060e08490526101008190524660a081815287517f8b73c3c69bb8fe3d512ecc4cf759cc79239f7b179b0ffacaa9a75d522b39400f818701819052818a0188905260608201859052608082019390935230818301528851808203909201825260c0019097528651969093019590952087958795879587959194938d938d9387938793909291906080523060c05261012052505050506001600160a01b0382811661014081905290821661016081905260405163095ea7b360e01b81526004810191909152600019602482015263095ea7b3906044016020604051808303816000875af1158015620001a9573d6000803e3d6000fd5b505050506040513d601f19601f82011682018060405250810190620001cf919062000333565b50620001dd91505062000265565b610180525050600680546001600160a01b039384166001600160a01b03199182161790915560078054929093169116179055506200035e945050505050565b6040805160208101859052908101839052606081018290524660808201523060a082015260009060c0016040516020818303038152906040528051906020012090509392505050565b600060c0516001600160a01b0316306001600160a01b03161480156200028c575060a05146145b1562000299575060805190565b620002b46101205160e051610100516200021c60201b60201c565b905090565b80516001600160a01b0381168114620002d157600080fd5b919050565b60008060008060808587031215620002ed57600080fd5b620002f885620002b9565b93506200030860208601620002b9565b92506200031860408601620002b9565b91506200032860608601620002b9565b905092959194509250565b6000602082840312156200034657600080fd5b815180151581146200035757600080fd5b9392505050565b60805160a05160c05160e05161010051610120516101405161016051610180516143386200040760003960006108970152600081816104c801528181612698015281816129450152818161355201526136820152600081816105eb015281816125e3015281816128ed0152818161358e01526136be01526000612258015260006122a701526000612282015260006121db015260006122050152600061222f01526143386000f3fe608060405234801561001057600080fd5b50600436106103365760003560e01c806370480275116101b2578063d798eff6116100f9578063e60f0c05116100a2578063f698da251161007c578063f698da2514610892578063fa950b48146108b9578063fbddd751146108cc578063fe729aaf146108df57600080fd5b8063e60f0c0514610834578063edef7d8e14610847578063f23a6e611461085a57600080fd5b8063e03ac3d0116100d3578063e03ac3d014610806578063e2eec4051461080e578063e50e4f971461082157600080fd5b8063d798eff6146107bd578063d7fb272f146107d0578063d82da838146107f357600080fd5b8063a287bdf11161015b578063b28c51c011610135578063b28c51c01461073b578063bc197c8114610759578063c10f1a751461079d57600080fd5b8063a287bdf114610702578063a6dfcf8614610715578063ac8a584a1461072857600080fd5b806383b8a5ae1161018c57806383b8a5ae146106d45780639870d7fe146106dc578063a10f3dce146106ef57600080fd5b8063704802751461068357806375d7370a146106965780637ecebe00146106b457600080fd5b8063429b62e5116102815780635893253c1161022a578063627cdcb911610204578063627cdcb91461061c578063654f0ce41461062457806368c7450f146106375780636d70f7ae1461064a57600080fd5b80635893253c146105ad5780635c1548fb146105e95780635c975abb1461060f57600080fd5b8063456068d21161025b578063456068d21461052f57806346423aa7146105375780634a2a11f5146105a557600080fd5b8063429b62e5146104f457806344bea37e146105145780634544f0551461051c57600080fd5b80631785f53c116102e357806334600901116102bd57806334600901146104b35780633b521d78146104c65780633d6d3598146104ec57600080fd5b80631785f53c1461042257806324d7806c146104355780632dff692d1461046f57600080fd5b80631031e36e116103145780631031e36e146103ca578063131e7e1c146103d457806313e7c9d8146103f457600080fd5b806301ffc9a71461033b5780630647ee201461036357806306b9d6911461039d575b600080fd5b61034e6103493660046136e2565b6108f2565b60405190151581526020015b60405180910390f35b61034e610371366004613756565b73ffffffffffffffffffffffffffffffffffffffff919091166000908152600460205260409020541490565b6103a561098b565b60405173ffffffffffffffffffffffffffffffffffffffff909116815260200161035a565b6103d2610a24565b005b6007546103a59073ffffffffffffffffffffffffffffffffffffffff1681565b610414610402366004613782565b60026020526000908152604090205481565b60405190815260200161035a565b6103d2610430366004613782565b610a78565b61034e610443366004613782565b73ffffffffffffffffffffffffffffffffffffffff166000908152600160208190526040909120541490565b61049c61047d36600461379f565b6008602052600090815260409020805460019091015460ff9091169082565b60408051921515835260208301919091520161035a565b6103d26104c136600461379f565b610b15565b7f00000000000000000000000000000000000000000000000000000000000000006103a5565b6103d2610b5f565b610414610502366004613782565b60016020526000908152604090205481565b610414600081565b6103d261052a366004613782565b610be3565b6103d2610c36565b61058861054536600461379f565b6040805180820190915260008082526020820152506000908152600860209081526040918290208251808401909352805460ff1615158352600101549082015290565b60408051825115158152602092830151928101929092520161035a565b6103e8610414565b6105d46105bb36600461379f565b6005602052600090815260409020805460019091015482565b6040805192835260208301919091520161035a565b7f00000000000000000000000000000000000000000000000000000000000000006103a5565b60035461034e9060ff1681565b6103d2610c88565b6103d26106323660046139f8565b610c92565b6103d2610645366004613a2d565b610cad565b61034e610658366004613782565b73ffffffffffffffffffffffffffffffffffffffff1660009081526002602052604090205460011490565b6103d2610691366004613782565b610d07565b60075473ffffffffffffffffffffffffffffffffffffffff166103a5565b6104146106c2366004613782565b60046020526000908152604090205481565b6103d2610da7565b6103d26106ea366004613782565b610e2c565b6104146106fd36600461379f565b610eca565b6103a5610710366004613782565b610ee8565b6103d26107233660046139f8565b610f14565b6103d2610736366004613782565b610f1d565b60065473ffffffffffffffffffffffffffffffffffffffff166103a5565b61076c610767366004613ae8565b610fba565b6040517fffffffff00000000000000000000000000000000000000000000000000000000909116815260200161035a565b6006546103a59073ffffffffffffffffffffffffffffffffffffffff1681565b6103d26107cb366004613c16565b610fe5565b6104146107de36600461379f565b60009081526005602052604090206001015490565b6103d2610801366004613c7a565b6110f5565b6103a5611136565b6103d261081c366004613c9c565b6111a6565b61041461082f3660046139f8565b6111fb565b6103d2610842366004613cd9565b611298565b6103a5610855366004613782565b6113a6565b61076c610868366004613d6b565b7ff23a6e610000000000000000000000000000000000000000000000000000000095945050505050565b6104147f000000000000000000000000000000000000000000000000000000000000000081565b6103d26108c7366004613dd4565b6113d2565b6103d26108da366004613782565b611409565b6103d26108ed366004613e09565b61145c565b60007fffffffff0000000000000000000000000000000000000000000000000000000082167f4e2312e000000000000000000000000000000000000000000000000000000000148061098557507f01ffc9a7000000000000000000000000000000000000000000000000000000007fffffffff000000000000000000000000000000000000000000000000000000008316145b92915050565b600654604080517faaf10f42000000000000000000000000000000000000000000000000000000008152905160009273ffffffffffffffffffffffffffffffffffffffff169163aaf10f429160048083019260209291908290030181865afa1580156109fb573d6000803e3d6000fd5b505050506040513d601f19601f82011682018060405250810190610a1f9190613e4e565b905090565b3360009081526001602081905260409091205414610a6e576040517f7bfa4b9f00000000000000000000000000000000000000000000000000000000815260040160405180910390fd5b610a7661155e565b565b3360009081526001602081905260409091205414610ac2576040517f7bfa4b9f00000000000000000000000000000000000000000000000000000000815260040160405180910390fd5b73ffffffffffffffffffffffffffffffffffffffff8116600081815260016020526040808220829055513392917f787a2e12f4a55b658b8f573c32432ee11a5e8b51677d1e1e937aaf6a0bb5776e91a350565b6000818152600560205260408120549003610b5c576040517f3f6cc76800000000000000000000000000000000000000000000000000000000815260040160405180910390fd5b50565b33600090815260026020526040902054600114610ba8576040517f7c214f0400000000000000000000000000000000000000000000000000000000815260040160405180910390fd5b336000818152600260205260408082208290555182917ff7262ed0443cc211121ceb1a80d69004f319245615a7488f951f1437fd91642c91a3565b3360009081526001602081905260409091205414610c2d576040517f7bfa4b9f00000000000000000000000000000000000000000000000000000000815260040160405180910390fd5b610b5c816115b6565b3360009081526001602081905260409091205414610c80576040517f7bfa4b9f00000000000000000000000000000000000000000000000000000000815260040160405180910390fd5b610a76611644565b610a766001611699565b6000610c9d826111fb565b9050610ca981836116c7565b5050565b3360009081526001602081905260409091205414610cf7576040517f7bfa4b9f00000000000000000000000000000000000000000000000000000000815260040160405180910390fd5b610d02838383611826565b505050565b3360009081526001602081905260409091205414610d51576040517f7bfa4b9f00000000000000000000000000000000000000000000000000000000815260040160405180910390fd5b73ffffffffffffffffffffffffffffffffffffffff8116600081815260016020819052604080832091909155513392917ff9ffabca9c8276e99321725bcb43fb076a6c66a54b7f21c4e8146d8519b417dc91a350565b3360009081526001602081905260409091205414610df1576040517f7bfa4b9f00000000000000000000000000000000000000000000000000000000815260040160405180910390fd5b336000818152600160205260408082208290555182917f787a2e12f4a55b658b8f573c32432ee11a5e8b51677d1e1e937aaf6a0bb5776e91a3565b3360009081526001602081905260409091205414610e76576040517f7bfa4b9f00000000000000000000000000000000000000000000000000000000815260040160405180910390fd5b73ffffffffffffffffffffffffffffffffffffffff811660008181526002602052604080822060019055513392917ff1e04d73c4304b5ff164f9d10c7473e2a1593b740674a6107975e2a7001c1e5c91a350565b6000610ed582610b15565b5060009081526005602052604090205490565b600061098582610ef6611136565b60075473ffffffffffffffffffffffffffffffffffffffff16611982565b610b5c81611a80565b3360009081526001602081905260409091205414610f67576040517f7bfa4b9f00000000000000000000000000000000000000000000000000000000815260040160405180910390fd5b73ffffffffffffffffffffffffffffffffffffffff8116600081815260026020526040808220829055513392917ff7262ed0443cc211121ceb1a80d69004f319245615a7488f951f1437fd91642c91a350565b7fbc197c81000000000000000000000000000000000000000000000000000000005b95945050505050565b600054600203611056576040517f08c379a000000000000000000000000000000000000000000000000000000000815260206004820152600a60248201527f5245454e5452414e43590000000000000000000000000000000000000000000060448201526064015b60405180910390fd5b6002600081815533815260209190915260409020546001146110a4576040517f7c214f0400000000000000000000000000000000000000000000000000000000815260040160405180910390fd5b60035460ff16156110e1576040517f9e87fac800000000000000000000000000000000000000000000000000000000815260040160405180910390fd5b6110ec828233611b85565b50506001600055565b806110ff83610eca565b14610ca9576040517f66f8620a00000000000000000000000000000000000000000000000000000000815260040160405180910390fd5b600754604080517fa619486e000000000000000000000000000000000000000000000000000000008152905160009273ffffffffffffffffffffffffffffffffffffffff169163a619486e9160048083019260209291908290030181865afa1580156109fb573d6000803e3d6000fd5b6111c58160400151826020015184846101800151856101600151611bde565b610ca9576040517f8baa579f00000000000000000000000000000000000000000000000000000000815260040160405180910390fd5b60006109857fa852566c4e14d00869b6db0220888a9090a13eccdaea03713ff0a3d27bf9767c836000015184602001518560400151866060015187608001518860a001518960c001518a60e001518b61010001518c61012001518d61014001518e610160015160405160200161127d9d9c9b9a99989796959493929190613eae565b60405160208183030381529060405280519060200120611c3c565b600054600203611304576040517f08c379a000000000000000000000000000000000000000000000000000000000815260206004820152600a60248201527f5245454e5452414e435900000000000000000000000000000000000000000000604482015260640161104d565b600260008181553381526020919091526040902054600114611352576040517f7c214f0400000000000000000000000000000000000000000000000000000000815260040160405180910390fd5b60035460ff161561138f576040517f9e87fac800000000000000000000000000000000000000000000000000000000815260040160405180910390fd5b61139b84848484611ca5565b505060016000555050565b6000610985826113b461098b565b60065473ffffffffffffffffffffffffffffffffffffffff16611e5c565b805160005b81811015610d02576114018382815181106113f4576113f4613f4c565b6020026020010151611a80565b6001016113d7565b3360009081526001602081905260409091205414611453576040517f7bfa4b9f00000000000000000000000000000000000000000000000000000000815260040160405180910390fd5b610b5c81611ebe565b6000546002036114c8576040517f08c379a000000000000000000000000000000000000000000000000000000000815260206004820152600a60248201527f5245454e5452414e435900000000000000000000000000000000000000000000604482015260640161104d565b600260008181553381526020919091526040902054600114611516576040517f7c214f0400000000000000000000000000000000000000000000000000000000815260040160405180910390fd5b60035460ff1615611553576040517f9e87fac800000000000000000000000000000000000000000000000000000000815260040160405180910390fd5b6110ec828233611f4c565b600380547fffffffffffffffffffffffffffffffffffffffffffffffffffffffffffffff0016600117905560405133907f203c4bd3e526634f661575359ff30de3b0edaba6c2cb1eac60f730b6d2d9d53690600090a2565b60075460405173ffffffffffffffffffffffffffffffffffffffff8084169216907f9726d7faf7429d6b059560dc858ed769377ccdf8b7541eabe12b22548719831f90600090a3600780547fffffffffffffffffffffffff00000000000000000000000000000000000000001673ffffffffffffffffffffffffffffffffffffffff92909216919091179055565b600380547fffffffffffffffffffffffffffffffffffffffffffffffffffffffffffffff0016905560405133907fa1e8a54850dbd7f520bcc09f47bff152294b77b2081da545a7adf531b7ea283b90600090a2565b336000908152600460205260409020546116b4908290613faa565b3360009081526004602052604090205550565b60008160e001511180156116de5750428160e00151105b15611715576040517fc56873ba00000000000000000000000000000000000000000000000000000000815260040160405180910390fd5b61171f82826111a6565b6103e88161012001511115611760576040517fcd4e616700000000000000000000000000000000000000000000000000000000815260040160405180910390fd5b61176d8160800151610b15565b60008281526008602052604090205460ff16156117b6576040517f7b38b76e00000000000000000000000000000000000000000000000000000000815260040160405180910390fd5b6117f0816020015182610100015173ffffffffffffffffffffffffffffffffffffffff919091166000908152600460205260409020541490565b610ca9576040517f756688fe00000000000000000000000000000000000000000000000000000000815260040160405180910390fd5b8183148061183a575082158061183a575081155b15611871576040517f3f6cc76800000000000000000000000000000000000000000000000000000000815260040160405180910390fd5b60008381526005602052604090205415158061189a575060008281526005602052604090205415155b156118d1576040517f3a81d6fc00000000000000000000000000000000000000000000000000000000815260040160405180910390fd5b6040805180820182528381526020808201848152600087815260058084528582209451855591516001948501558451808601865288815280840187815288835292909352848120925183559051919092015590518291849186917fbc9a2432e8aeb48327246cddd6e872ef452812b4243c04e6bfb786a2cd8faf0d91a48083837fbc9a2432e8aeb48327246cddd6e872ef452812b4243c04e6bfb786a2cd8faf0d60405160405180910390a4505050565b60008061198e8461205a565b8051906020012090506000856040516020016119c6919073ffffffffffffffffffffffffffffffffffffffff91909116815260200190565b604080518083037fffffffffffffffffffffffffffffffffffffffffffffffffffffffffffffffe001815282825280516020918201207fff000000000000000000000000000000000000000000000000000000000000008285015260609790971b7fffffffffffffffffffffffffffffffffffffffff000000000000000000000000166021840152603583019690965260558083019490945280518083039094018452607590910190525080519201919091209392505050565b602081015173ffffffffffffffffffffffffffffffffffffffff163314611ad3576040517f30cd747100000000000000000000000000000000000000000000000000000000815260040160405180910390fd5b6000611ade826111fb565b600081815260086020526040902080549192509060ff1615611b2c576040517f7b38b76e00000000000000000000000000000000000000000000000000000000815260040160405180910390fd5b80547fffffffffffffffffffffffffffffffffffffffffffffffffffffffffffffff0016600117815560405182907f5152abf959f6564662358c2e52b702259b78bac5ee7842a0f01937e670efcc7d90600090a2505050565b825160005b81811015611bd757611bcf858281518110611ba757611ba7613f4c565b6020026020010151858381518110611bc157611bc1613f4c565b602002602001015185611f4c565b600101611b8a565b5050505050565b600080826002811115611bf357611bf3613e6b565b03611c0b57611c04868686866120eb565b9050610fdc565b6002826002811115611c1f57611c1f613e6b565b03611c3057611c0486868686612139565b611c048686868661218d565b6000610985611c496121c1565b836040517f19010000000000000000000000000000000000000000000000000000000000006020820152602281018390526042810182905260009060620160405160208183030381529060405280519060200120905092915050565b81600080611cb387846122f5565b91509150600080611cc389612342565b91509150611cd78960200151308488612379565b611ce28989886123a3565b611cec84826123f5565b6101208a0151909450600090611d2e90828c61014001516001811115611d1457611d14613e6b565b14611d1f5787611d21565b865b88888e610140015161243d565b9050611d4b308b60200151848489611d469190613fc2565b612379565b611d573033848461252d565b6000611d6284612596565b90508015611d7a57611d7a308c602001518684612379565b60208b8101516040805187815292830186905282018990526060820188905260808201849052309173ffffffffffffffffffffffffffffffffffffffff9091169087907fd0a08e8c493f9c94f29311604c9de1b4e8c8d4c06bd0c789af57f2d65bfec0f69060a00160405180910390a46020808c01516040805187815292830186905282018990526060820188905273ffffffffffffffffffffffffffffffffffffffff169086907f63bf4d16b7fa898ef4c4b2b6d90fd201e9c56313b65638af6088d149d2ce956c9060800160405180910390a35050505050505050505050565b6040517fffffffffffffffffffffffffffffffffffffffff000000000000000000000000606085901b166020820152600090611eb49083908590603401604051602081830303815290604052805190602001206126c6565b90505b9392505050565b60065460405173ffffffffffffffffffffffffffffffffffffffff8084169216907f3053c6252a932554235c173caffc1913604dba3a41cee89516f631c4a1a50a3790600090a3600680547fffffffffffffffffffffffff00000000000000000000000000000000000000001673ffffffffffffffffffffffffffffffffffffffff92909216919091179055565b81600080611f5a86846122f5565b6101208801519193509150600090611fa790825b8961014001516001811115611f8557611f85613e6b565b14611f905785611f92565b845b8960a001518a60c001518b610140015161243d565b9050600080611fb589612342565b91509150611fcf338a60200151838689611d469190613fc2565b611fdf8960200151888489612379565b6020898101516040805185815292830184905282018890526060820187905260808201859052339173ffffffffffffffffffffffffffffffffffffffff9091169086907fd0a08e8c493f9c94f29311604c9de1b4e8c8d4c06bd0c789af57f2d65bfec0f69060a00160405180910390a4505050505050505050565b6060604051806101a00160405280610171815260200161419261017191396040805173ffffffffffffffffffffffffffffffffffffffff8516602082015201604080517fffffffffffffffffffffffffffffffffffffffffffffffffffffffffffffffe0818403018152908290526120d59291602001614005565b6040516020818303038152906040529050919050565b60008373ffffffffffffffffffffffffffffffffffffffff168573ffffffffffffffffffffffffffffffffffffffff1614801561212e575061212e858484612763565b90505b949350505050565b6000612146858484612763565b801561212e57508373ffffffffffffffffffffffffffffffffffffffff1661216d86610ee8565b73ffffffffffffffffffffffffffffffffffffffff161495945050505050565b600061219a858484612763565b801561212e57508373ffffffffffffffffffffffffffffffffffffffff1661216d866113a6565b60003073ffffffffffffffffffffffffffffffffffffffff7f00000000000000000000000000000000000000000000000000000000000000001614801561222757507f000000000000000000000000000000000000000000000000000000000000000046145b1561225157507f000000000000000000000000000000000000000000000000000000000000000090565b50604080517f00000000000000000000000000000000000000000000000000000000000000006020808301919091527f0000000000000000000000000000000000000000000000000000000000000000828401527f000000000000000000000000000000000000000000000000000000000000000060608301524660808301523060a0808401919091528351808403909101815260c0909201909252805191012090565b60008061230584606001516127a5565b61230e846111fb565b905061231a81856116c7565b61232d838560a001518660c00151612817565b915061233a81858561283e565b509250929050565b60008080836101400151600181111561235d5761235d613e6b565b0361236d57505060800151600091565b50506080015190600090565b816000036123915761238c8484836128eb565b61239d565b61239d84848484612940565b50505050565b815160005b81811015611bd7576123ed858583815181106123c6576123c6613f4c565b60200260200101518584815181106123e0576123e0613f4c565b602002602001015161296d565b6001016123a8565b60008061240183612596565b905083811015611eb7576040517fdf4d808000000000000000000000000000000000000000000000000000000000815260040160405180910390fd5b60008515610fdc576000612452858585612a52565b905060008111801561246c5750670de0b6b3a76400008111155b1561252357600083600181111561248557612485613e6b565b036124d75761249661271082614034565b866124b2836124ad81670de0b6b3a7640000613fc2565b612ac1565b6124bc908a614034565b6124c69190614034565b6124d09190614071565b9150612523565b6124eb670de0b6b3a7640000612710614034565b86612502836124ad81670de0b6b3a7640000613fc2565b61250c908a614034565b6125169190614034565b6125209190614071565b91505b5095945050505050565b801561239d5761253f84848484612379565b604080518381526020810183905273ffffffffffffffffffffffffffffffffffffffff8516917facffcc86834d0f1a64b0d5a675798deed6ff0bcfc2231edd3480e7288dba7ff4910160405180910390a250505050565b60008160000361264f576040517f70a0823100000000000000000000000000000000000000000000000000000000815230600482015273ffffffffffffffffffffffffffffffffffffffff7f000000000000000000000000000000000000000000000000000000000000000016906370a08231906024015b602060405180830381865afa15801561262b573d6000803e3d6000fd5b505050506040513d601f19601f8201168201806040525081019061098591906140ac565b6040517efdd58e0000000000000000000000000000000000000000000000000000000081523060048201526024810183905273ffffffffffffffffffffffffffffffffffffffff7f0000000000000000000000000000000000000000000000000000000000000000169062fdd58e9060440161260e565b6000806126d38585612ad7565b8051602091820120604080517fff000000000000000000000000000000000000000000000000000000000000008185015260609890981b7fffffffffffffffffffffffffffffffffffffffff000000000000000000000000166021890152603588019590955260558088019190915284518088039091018152607590960190935250508251920191909120919050565b60008373ffffffffffffffffffffffffffffffffffffffff166127868484612c5a565b73ffffffffffffffffffffffffffffffffffffffff1614949350505050565b73ffffffffffffffffffffffffffffffffffffffff8116158015906127e0575073ffffffffffffffffffffffffffffffffffffffff81163314155b15610b5c576040517f5211a07900000000000000000000000000000000000000000000000000000000815260040160405180910390fd5b60008260000361282957506000611eb7565b826128348386614034565b611eb49190614071565b6000838152600860205260409020600181015490811561285e5781612864565b8360a001515b9150818311156128a0576040517fe2cc6ad600000000000000000000000000000000000000000000000000000000815260040160405180910390fd5b6128aa8383613fc2565b9150816000036128de5780547fffffffffffffffffffffffffffffffffffffffffffffffffffffffffffffff001660011781555b6001018190559392505050565b7f00000000000000000000000000000000000000000000000000000000000000003073ffffffffffffffffffffffffffffffffffffffff8516036129345761238c818484612c7e565b61239d81858585612c89565b61239d7f000000000000000000000000000000000000000000000000000000000000000085858585612c95565b60006129798484612d41565b9050612986848483612ddd565b8160008061299486846122f5565b61012088015191935091506000906129ac9082611f6e565b90506000806129ba89612342565b915091506129d186868b6020015185858c89612e89565b6020808b01518a820151604080518681529384018590528301899052606083018890526080830186905273ffffffffffffffffffffffffffffffffffffffff9182169291169086907fd0a08e8c493f9c94f29311604c9de1b4e8c8d4c06bd0c789af57f2d65bfec0f69060a00160405180910390a450505050505050505050565b600080826001811115612a6757612a67613e6b565b03612a9f5782600003612a7b576000612a98565b82612a8e670de0b6b3a764000086614034565b612a989190614071565b9050611eb7565b83600003612aae576000611eb4565b83612834670de0b6b3a764000085614034565b6000818310612ad05781611eb7565b5090919050565b6040805160008082526020820190925260609190612af890604481016140c5565b604080517fffffffffffffffffffffffffffffffffffffffffffffffffffffffffffffffe0818403018152918152602080830180517bffffffffffffffffffffffffffffffffffffffffffffffffffffffff167f52e831dd000000000000000000000000000000000000000000000000000000001790528151606380825260a082019093529293506000929190820181803683370190505090507f3d3d606380380380913d393d73bebebebebebebebebebebebebebebebebebebe60208201526c010000000000000000000000008502602d8201527f5af4602a57600080fd5b602d8060366000396000f3363d3d373d3d3d363d73be60418201526c01000000000000000000000000840260608201527f5af43d82803e903d91602b57fd5bf3000000000000000000000000000000000060748201528082604051602001612c41929190614005565b6040516020818303038152906040529250505092915050565b6000806000612c698585612f09565b91509150612c7681612f4e565b509392505050565b610d02838383613101565b61239d848484846131ba565b6040517ff242432a00000000000000000000000000000000000000000000000000000000815273ffffffffffffffffffffffffffffffffffffffff85811660048301528481166024830152604482018490526064820183905260a06084830152600060a483015286169063f242432a9060c401600060405180830381600087803b158015612d2257600080fd5b505af1158015612d36573d6000803e3d6000fd5b505050505050505050565b6000808361014001516001811115612d5b57612d5b613e6b565b148015612d7e575060008261014001516001811115612d7c57612d7c613e6b565b145b15612d8b57506001610985565b60018361014001516001811115612da457612da4613e6b565b148015612dc7575060018261014001516001811115612dc557612dc5613e6b565b145b15612dd457506002610985565b50600092915050565b612de78383613279565b612e1d576040517f7f9a6f4600000000000000000000000000000000000000000000000000000000815260040160405180910390fd5b6000816002811115612e3157612e31613e6b565b03612e77578160800151836080015114610d02576040517fa0b9446500000000000000000000000000000000000000000000000000000000815260040160405180910390fd5b610d02836080015183608001516110f5565b612e958530868a612379565b612ea287878686866132c3565b85612eac84612596565b1015612ee4576040517fdf4d808000000000000000000000000000000000000000000000000000000000815260040160405180910390fd5b612ef4308685611d46858b613fc2565b612f003033858461252d565b50505050505050565b6000808251604103612f3f5760208301516040840151606085015160001a612f338782858561334b565b94509450505050612f47565b506000905060025b9250929050565b6000816004811115612f6257612f62613e6b565b03612f6a5750565b6001816004811115612f7e57612f7e613e6b565b03612fe5576040517f08c379a000000000000000000000000000000000000000000000000000000000815260206004820152601860248201527f45434453413a20696e76616c6964207369676e61747572650000000000000000604482015260640161104d565b6002816004811115612ff957612ff9613e6b565b03613060576040517f08c379a000000000000000000000000000000000000000000000000000000000815260206004820152601f60248201527f45434453413a20696e76616c6964207369676e6174757265206c656e67746800604482015260640161104d565b600381600481111561307457613074613e6b565b03610b5c576040517f08c379a000000000000000000000000000000000000000000000000000000000815260206004820152602260248201527f45434453413a20696e76616c6964207369676e6174757265202773272076616c60448201527f7565000000000000000000000000000000000000000000000000000000000000606482015260840161104d565b60006040517fa9059cbb000000000000000000000000000000000000000000000000000000008152836004820152826024820152602060006044836000895af13d15601f3d116001600051141617169150508061239d576040517f08c379a000000000000000000000000000000000000000000000000000000000815260206004820152600f60248201527f5452414e534645525f4641494c45440000000000000000000000000000000000604482015260640161104d565b60006040517f23b872dd0000000000000000000000000000000000000000000000000000000081528460048201528360248201528260448201526020600060648360008a5af13d15601f3d1160016000511416171691505080611bd7576040517f08c379a000000000000000000000000000000000000000000000000000000000815260206004820152601460248201527f5452414e534645525f46524f4d5f4641494c4544000000000000000000000000604482015260640161104d565b60008260c0015160001480613290575060c0820151155b1561329d57506001610985565b611eb76132a98461343a565b6132b28461343a565b856101400151856101400151613454565b60008160028111156132d7576132d7613e6b565b14611bd75760018160028111156132f0576132f0613e6b565b036133165760008281526005602052604090206001015461331190856134ee565b611bd7565b600281600281111561332a5761332a613e6b565b03611bd757600083815260056020526040902060010154613311908661361e565b6000807f7fffffffffffffffffffffffffffffff5d576e7357a4501ddfe92f46681b20a08311156133825750600090506003613431565b6040805160008082526020820180845289905260ff881692820192909252606081018690526080810185905260019060a0016020604051602081039080840390855afa1580156133d6573d6000803e3d6000fd5b50506040517fffffffffffffffffffffffffffffffffffffffffffffffffffffffffffffffe0015191505073ffffffffffffffffffffffffffffffffffffffff811661342a57600060019250925050613431565b9150600090505b94509492505050565b60006109858260a001518360c00151846101400151612a52565b60008083600181111561346957613469613e6b565b036134ad57600082600181111561348257613482613e6b565b036134a357670de0b6b3a764000061349a8587613faa565b10159050612131565b5082841015612131565b60008260018111156134c1576134c1613e6b565b036134d0575083831015612131565b670de0b6b3a76400006134e38587613faa565b111595945050505050565b60408051600280825260608201835260009260208301908036833701905050905060018160008151811061352457613524613f4c565b60200260200101818152505060028160018151811061354557613545613f4c565b60209081029190910101527f000000000000000000000000000000000000000000000000000000000000000073ffffffffffffffffffffffffffffffffffffffff166372ce42757f00000000000000000000000000000000000000000000000000000000000000005b6040517fffffffff0000000000000000000000000000000000000000000000000000000060e084901b1681526135f09190600090889087908990600401614116565b600060405180830381600087803b15801561360a57600080fd5b505af1158015612f00573d6000803e3d6000fd5b60408051600280825260608201835260009260208301908036833701905050905060018160008151811061365457613654613f4c565b60200260200101818152505060028160018151811061367557613675613f4c565b60209081029190910101527f000000000000000000000000000000000000000000000000000000000000000073ffffffffffffffffffffffffffffffffffffffff16639e7212ad7f00000000000000000000000000000000000000000000000000000000000000006135ae565b6000602082840312156136f457600080fd5b81357fffffffff0000000000000000000000000000000000000000000000000000000081168114611eb757600080fd5b73ffffffffffffffffffffffffffffffffffffffff81168114610b5c57600080fd5b803561375181613724565b919050565b6000806040838503121561376957600080fd5b823561377481613724565b946020939093013593505050565b60006020828403121561379457600080fd5b8135611eb781613724565b6000602082840312156137b157600080fd5b5035919050565b7f4e487b7100000000000000000000000000000000000000000000000000000000600052604160045260246000fd5b6040516101a0810167ffffffffffffffff8111828210171561380b5761380b6137b8565b60405290565b604051601f82017fffffffffffffffffffffffffffffffffffffffffffffffffffffffffffffffe016810167ffffffffffffffff81118282101715613858576138586137b8565b604052919050565b80356002811061375157600080fd5b80356003811061375157600080fd5b600082601f83011261388f57600080fd5b813567ffffffffffffffff8111156138a9576138a96137b8565b6138da60207fffffffffffffffffffffffffffffffffffffffffffffffffffffffffffffffe0601f84011601613811565b8181528460208386010111156138ef57600080fd5b816020850160208301376000918101602001919091529392505050565b60006101a0828403121561391f57600080fd5b6139276137e7565b90508135815261393960208301613746565b602082015261394a60408301613746565b604082015261395b60608301613746565b60608201526080820135608082015260a082013560a082015260c082013560c082015260e082013560e08201526101008083013581830152506101208083013581830152506101406139ae818401613860565b908201526101606139c083820161386f565b908201526101808281013567ffffffffffffffff8111156139e057600080fd5b6139ec8582860161387e565b82840152505092915050565b600060208284031215613a0a57600080fd5b813567ffffffffffffffff811115613a2157600080fd5b6121318482850161390c565b600080600060608486031215613a4257600080fd5b505081359360208301359350604090920135919050565b600067ffffffffffffffff821115613a7357613a736137b8565b5060051b60200190565b600082601f830112613a8e57600080fd5b81356020613aa3613a9e83613a59565b613811565b82815260059290921b84018101918181019086841115613ac257600080fd5b8286015b84811015613add5780358352918301918301613ac6565b509695505050505050565b600080600080600060a08688031215613b0057600080fd5b8535613b0b81613724565b94506020860135613b1b81613724565b9350604086013567ffffffffffffffff80821115613b3857600080fd5b613b4489838a01613a7d565b94506060880135915080821115613b5a57600080fd5b613b6689838a01613a7d565b93506080880135915080821115613b7c57600080fd5b50613b898882890161387e565b9150509295509295909350565b600082601f830112613ba757600080fd5b81356020613bb7613a9e83613a59565b82815260059290921b84018101918181019086841115613bd657600080fd5b8286015b84811015613add57803567ffffffffffffffff811115613bfa5760008081fd5b613c088986838b010161390c565b845250918301918301613bda565b60008060408385031215613c2957600080fd5b823567ffffffffffffffff80821115613c4157600080fd5b613c4d86838701613b96565b93506020850135915080821115613c6357600080fd5b50613c7085828601613a7d565b9150509250929050565b60008060408385031215613c8d57600080fd5b50508035926020909101359150565b60008060408385031215613caf57600080fd5b82359150602083013567ffffffffffffffff811115613ccd57600080fd5b613c708582860161390c565b60008060008060808587031215613cef57600080fd5b843567ffffffffffffffff80821115613d0757600080fd5b613d138883890161390c565b95506020870135915080821115613d2957600080fd5b613d3588838901613b96565b9450604087013593506060870135915080821115613d5257600080fd5b50613d5f87828801613a7d565b91505092959194509250565b600080600080600060a08688031215613d8357600080fd5b8535613d8e81613724565b94506020860135613d9e81613724565b93506040860135925060608601359150608086013567ffffffffffffffff811115613dc857600080fd5b613b898882890161387e565b600060208284031215613de657600080fd5b813567ffffffffffffffff811115613dfd57600080fd5b61213184828501613b96565b60008060408385031215613e1c57600080fd5b823567ffffffffffffffff811115613e3357600080fd5b613e3f8582860161390c565b95602094909401359450505050565b600060208284031215613e6057600080fd5b8151611eb781613724565b7f4e487b7100000000000000000000000000000000000000000000000000000000600052602160045260246000fd5b60038110613eaa57613eaa613e6b565b9052565b60006101a0820190508e82528d602083015273ffffffffffffffffffffffffffffffffffffffff808e166040840152808d166060840152808c166080840152508960a08301528860c08301528760e083015286610100830152856101208301528461014083015260028410613f2557613f25613e6b565b83610160830152613f3a610180830184613e9a565b9e9d5050505050505050505050505050565b7f4e487b7100000000000000000000000000000000000000000000000000000000600052603260045260246000fd5b7f4e487b7100000000000000000000000000000000000000000000000000000000600052601160045260246000fd5b60008219821115613fbd57613fbd613f7b565b500190565b600082821015613fd457613fd4613f7b565b500390565b60005b83811015613ff4578181015183820152602001613fdc565b8381111561239d5750506000910152565b60008351614017818460208801613fd9565b83519083019061402b818360208801613fd9565b01949350505050565b6000817fffffffffffffffffffffffffffffffffffffffffffffffffffffffffffffffff048311821515161561406c5761406c613f7b565b500290565b6000826140a7577f4e487b7100000000000000000000000000000000000000000000000000000000600052601260045260246000fd5b500490565b6000602082840312156140be57600080fd5b5051919050565b60208152600082518060208401526140e4816040850160208701613fd9565b601f017fffffffffffffffffffffffffffffffffffffffffffffffffffffffffffffffe0169190910160400192915050565b600060a0820173ffffffffffffffffffffffffffffffffffffffff881683526020878185015286604085015260a0606085015281865180845260c086019150828801935060005b818110156141795784518352938301939183019160010161415d565b5050809350505050826080830152969550505050505056fe608060405234801561001057600080fd5b5060405161017138038061017183398101604081905261002f916100b9565b6001600160a01b0381166100945760405162461bcd60e51b815260206004820152602260248201527f496e76616c69642073696e676c65746f6e20616464726573732070726f766964604482015261195960f21b606482015260840160405180910390fd5b600080546001600160a01b0319166001600160a01b03929092169190911790556100e7565b6000602082840312156100ca578081fd5b81516001600160a01b03811681146100e0578182fd5b9392505050565b607c806100f56000396000f3fe6080604052600080546001600160a01b0316813563530ca43760e11b1415602857808252602082f35b3682833781823684845af490503d82833e806041573d82fd5b503d81f3fea264697066735822122015938e3bf2c49f5df5c1b7f9569fa85cc5d6f3074bb258a2dc0c7e299bc9e33664736f6c63430008040033a2646970667358221220c9489efe43f1a39cf1d76c8f3ba9f07e5c0a07a9579604410a5a24547e01a84064736f6c634300080f0033",
    "linkReferences": {}
  },
  "methodIdentifiers": {
    "addAdmin(address)": "70480275",
    "addOperator(address)": "9870d7fe",
    "admins(address)": "429b62e5",
    "cancelOrder((uint256,address,address,address,uint256,uint256,uint256,uint256,uint256,uint256,uint8,uint8,bytes))": "a6dfcf86",
    "cancelOrders((uint256,address,address,address,uint256,uint256,uint256,uint256,uint256,uint256,uint8,uint8,bytes)[])": "fa950b48",
    "domainSeparator()": "f698da25",
    "fillOrder((uint256,address,address,address,uint256,uint256,uint256,uint256,uint256,uint256,uint8,uint8,bytes),uint256)": "fe729aaf",
    "fillOrders((uint256,address,address,address,uint256,uint256,uint256,uint256,uint256,uint256,uint8,uint8,bytes)[],uint256[])": "d798eff6",
    "getCollateral()": "5c1548fb",
    "getComplement(uint256)": "a10f3dce",
    "getConditionId(uint256)": "d7fb272f",
    "getCtf()": "3b521d78",
    "getMaxFeeRate()": "4a2a11f5",
    "getOrderStatus(bytes32)": "46423aa7",
    "getPolyProxyFactoryImplementation()": "06b9d691",
    "getPolyProxyWalletAddress(address)": "edef7d8e",
    "getProxyFactory()": "b28c51c0",
    "getSafeAddress(address)": "a287bdf1",
    "getSafeFactory()": "75d7370a",
    "getSafeFactoryImplementation()": "e03ac3d0",
    "hashOrder((uint256,address,address,address,uint256,uint256,uint256,uint256,uint256,uint256,uint8,uint8,bytes))": "e50e4f97",
    "incrementNonce()": "627cdcb9",
    "isAdmin(address)": "24d7806c",
    "isOperator(address)": "6d70f7ae",
    "isValidNonce(address,uint256)": "0647ee20",
    "matchOrders((uint256,address,address,address,uint256,uint256,uint256,uint256,uint256,uint256,uint8,uint8,bytes),(uint256,address,address,address,uint256,uint256,uint256,uint256,uint256,uint256,uint8,uint8,bytes)[],uint256,uint256[])": "e60f0c05",
    "nonces(address)": "7ecebe00",
    "onERC1155BatchReceived(address,address,uint256[],uint256[],bytes)": "bc197c81",
    "onERC1155Received(address,address,uint256,uint256,bytes)": "f23a6e61",
    "operators(address)": "13e7c9d8",
    "orderStatus(bytes32)": "2dff692d",
    "parentCollectionId()": "44bea37e",
    "pauseTrading()": "1031e36e",
    "paused()": "5c975abb",
    "proxyFactory()": "c10f1a75",
    "registerToken(uint256,uint256,bytes32)": "68c7450f",
    "registry(uint256)": "5893253c",
    "removeAdmin(address)": "1785f53c",
    "removeOperator(address)": "ac8a584a",
    "renounceAdminRole()": "83b8a5ae",
    "renounceOperatorRole()": "3d6d3598",
    "safeFactory()": "131e7e1c",
    "setProxyFactory(address)": "fbddd751",
    "setSafeFactory(address)": "4544f055",
    "supportsInterface(bytes4)": "01ffc9a7",
    "unpauseTrading()": "456068d2",
    "validateComplement(uint256,uint256)": "d82da838",
    "validateOrder((uint256,address,address,address,uint256,uint256,uint256,uint256,uint256,uint256,uint8,uint8,bytes))": "654f0ce4",
    "validateOrderSignature(bytes32,(uint256,address,address,address,uint256,uint256,uint256,uint256,uint256,uint256,uint8,uint8,bytes))": "e2eec405",
    "validateTokenId(uint256)": "34600901"
  },
  "id": 54
}