{
    "abi": [
        {
            "inputs": [
                {
                    "internalType": "address",
                    "name": "_exchange",
                    "type": "address"
                }
            ],
            "stateMutability": "nonpayable",
            "type": "constructor"
        },
        {
            "inputs": [],
            "name": "NotAdmin",
            "type": "error"
        },
        {
            "anonymous": false,
            "inputs": [
                {
                    "indexed": false,
                    "internalType": "address",
                    "name": "token",
                    "type": "address"
                },
                {
                    "indexed": false,
                    "internalType": "address",
                    "name": "to",
                    "type": "address"
                },
                {
                    "indexed": false,
                    "internalType": "uint256",
                    "name": "id",
                    "type": "uint256"
                },
                {
                    "indexed": false,
                    "internalType": "uint256",
                    "name": "amount",
                    "type": "uint256"
                }
            ],
            "name": "FeeRefunded",
            "type": "event"
        },
        {
            "anonymous": false,
            "inputs": [
                {
                    "indexed": false,
                    "internalType": "address",
                    "name": "token",
                    "type": "address"
                },
                {
                    "indexed": false,
                    "internalType": "address",
                    "name": "to",
                    "type": "address"
                },
                {
                    "indexed": false,
                    "internalType": "uint256",
                    "name": "id",
                    "type": "uint256"
                },
                {
                    "indexed": false,
                    "internalType": "uint256",
                    "name": "amount",
                    "type": "uint256"
                }
            ],
            "name": "FeeWithdrawn",
            "type": "event"
        },
        {
            "anonymous": false,
            "inputs": [
                {
                    "indexed": true,
                    "internalType": "address",
                    "name": "admin",
                    "type": "address"
                },
                {
                    "indexed": true,
                    "internalType": "address",
                    "name": "newAdminAddress",
                    "type": "address"
                }
            ],
            "name": "NewAdmin",
            "type": "event"
        },
        {
            "anonymous": false,
            "inputs": [
                {
                    "indexed": true,
                    "internalType": "address",
                    "name": "admin",
                    "type": "address"
                },
                {
                    "indexed": true,
                    "internalType": "address",
                    "name": "removedAdmin",
                    "type": "address"
                }
            ],
            "name": "RemovedAdmin",
            "type": "event"
        },
        {
            "inputs": [
                {
                    "internalType": "address",
                    "name": "admin",
                    "type": "address"
                }
            ],
            "name": "addAdmin",
            "outputs": [],
            "stateMutability": "nonpayable",
            "type": "function"
        },
        {
            "inputs": [
                {
                    "internalType": "address",
                    "name": "",
                    "type": "address"
                }
            ],
            "name": "admins",
            "outputs": [
                {
                    "internalType": "uint256",
                    "name": "",
                    "type": "uint256"
                }
            ],
            "stateMutability": "view",
            "type": "function"
        },
        {
            "inputs": [],
            "name": "collateral",
            "outputs": [
                {
                    "internalType": "address",
                    "name": "",
                    "type": "address"
                }
            ],
            "stateMutability": "view",
            "type": "function"
        },
        {
            "inputs": [],
            "name": "ctf",
            "outputs": [
                {
                    "internalType": "address",
                    "name": "",
                    "type": "address"
                }
            ],
            "stateMutability": "view",
            "type": "function"
        },
        {
            "inputs": [],
            "name": "exchange",
            "outputs": [
                {
                    "internalType": "contract IExchange",
                    "name": "",
                    "type": "address"
                }
            ],
            "stateMutability": "view",
            "type": "function"
        },
        {
            "inputs": [
                {
                    "internalType": "address",
                    "name": "addr",
                    "type": "address"
                }
            ],
            "name": "isAdmin",
            "outputs": [
                {
                    "internalType": "bool",
                    "name": "",
                    "type": "bool"
                }
            ],
            "stateMutability": "view",
            "type": "function"
        },
        {
            "inputs": [
                {
                    "components": [
                        {
                            "internalType": "uint256",
                            "name": "salt",
                            "type": "uint256"
                        },
                        {
                            "internalType": "address",
                            "name": "maker",
                            "type": "address"
                        },
                        {
                            "internalType": "address",
                            "name": "signer",
                            "type": "address"
                        },
                        {
                            "internalType": "address",
                            "name": "taker",
                            "type": "address"
                        },
                        {
                            "internalType": "uint256",
                            "name": "tokenId",
                            "type": "uint256"
                        },
                        {
                            "internalType": "uint256",
                            "name": "makerAmount",
                            "type": "uint256"
                        },
                        {
                            "internalType": "uint256",
                            "name": "takerAmount",
                            "type": "uint256"
                        },
                        {
                            "internalType": "uint256",
                            "name": "expiration",
                            "type": "uint256"
                        },
                        {
                            "internalType": "uint256",
                            "name": "nonce",
                            "type": "uint256"
                        },
                        {
                            "internalType": "uint256",
                            "name": "feeRateBps",
                            "type": "uint256"
                        },
                        {
                            "internalType": "enum Side",
                            "name": "side",
                            "type": "uint8"
                        },
                        {
                            "internalType": "enum SignatureType",
                            "name": "signatureType",
                            "type": "uint8"
                        },
                        {
                            "internalType": "bytes",
                            "name": "signature",
                            "type": "bytes"
                        }
                    ],
                    "internalType": "struct Order",
                    "name": "takerOrder",
                    "type": "tuple"
                },
                {
                    "components": [
                        {
                            "internalType": "uint256",
                            "name": "salt",
                            "type": "uint256"
                        },
                        {
                            "internalType": "address",
                            "name": "maker",
                            "type": "address"
                        },
                        {
                            "internalType": "address",
                            "name": "signer",
                            "type": "address"
                        },
                        {
                            "internalType": "address",
                            "name": "taker",
                            "type": "address"
                        },
                        {
                            "internalType": "uint256",
                            "name": "tokenId",
                            "type": "uint256"
                        },
                        {
                            "internalType": "uint256",
                            "name": "makerAmount",
                            "type": "uint256"
                        },
                        {
                            "internalType": "uint256",
                            "name": "takerAmount",
                            "type": "uint256"
                        },
                        {
                            "internalType": "uint256",
                            "name": "expiration",
                            "type": "uint256"
                        },
                        {
                            "internalType": "uint256",
                            "name": "nonce",
                            "type": "uint256"
                        },
                        {
                            "internalType": "uint256",
                            "name": "feeRateBps",
                            "type": "uint256"
                        },
                        {
                            "internalType": "enum Side",
                            "name": "side",
                            "type": "uint8"
                        },
                        {
                            "internalType": "enum SignatureType",
                            "name": "signatureType",
                            "type": "uint8"
                        },
                        {
                            "internalType": "bytes",
                            "name": "signature",
                            "type": "bytes"
                        }
                    ],
                    "internalType": "struct Order[]",
                    "name": "makerOrders",
                    "type": "tuple[]"
                },
                {
                    "internalType": "uint256",
                    "name": "takerFillAmount",
                    "type": "uint256"
                },
                {
                    "internalType": "uint256[]",
                    "name": "makerFillAmounts",
                    "type": "uint256[]"
                },
                {
                    "internalType": "uint256",
                    "name": "makerFeeRate",
                    "type": "uint256"
                }
            ],
            "name": "matchOrders",
            "outputs": [],
            "stateMutability": "nonpayable",
            "type": "function"
        },
        {
            "inputs": [
                {
                    "internalType": "address",
                    "name": "",
                    "type": "address"
                },
                {
                    "internalType": "address",
                    "name": "",
                    "type": "address"
                },
                {
                    "internalType": "uint256[]",
                    "name": "",
                    "type": "uint256[]"
                },
                {
                    "internalType": "uint256[]",
                    "name": "",
                    "type": "uint256[]"
                },
                {
                    "internalType": "bytes",
                    "name": "",
                    "type": "bytes"
                }
            ],
            "name": "onERC1155BatchReceived",
            "outputs": [
                {
                    "internalType": "bytes4",
                    "name": "",
                    "type": "bytes4"
                }
            ],
            "stateMutability": "nonpayable",
            "type": "function"
        },
        {
            "inputs": [
                {
                    "internalType": "address",
                    "name": "",
                    "type": "address"
                },
                {
                    "internalType": "address",
                    "name": "",
                    "type": "address"
                },
                {
                    "internalType": "uint256",
                    "name": "",
                    "type": "uint256"
                },
                {
                    "internalType": "uint256",
                    "name": "",
                    "type": "uint256"
                },
                {
                    "internalType": "bytes",
                    "name": "",
                    "type": "bytes"
                }
            ],
            "name": "onERC1155Received",
            "outputs": [
                {
                    "internalType": "bytes4",
                    "name": "",
                    "type": "bytes4"
                }
            ],
            "stateMutability": "nonpayable",
            "type": "function"
        },
        {
            "inputs": [
                {
                    "internalType": "address",
                    "name": "admin",
                    "type": "address"
                }
            ],
            "name": "removeAdmin",
            "outputs": [],
            "stateMutability": "nonpayable",
            "type": "function"
        },
        {
            "inputs": [],
            "name": "renounceAdmin",
            "outputs": [],
            "stateMutability": "nonpayable",
            "type": "function"
        },
        {
            "inputs": [
                {
                    "internalType": "address",
                    "name": "to",
                    "type": "address"
                },
                {
                    "internalType": "uint256",
                    "name": "id",
                    "type": "uint256"
                },
                {
                    "internalType": "uint256",
                    "name": "amount",
                    "type": "uint256"
                }
            ],
            "name": "withdrawFees",
            "outputs": [],
            "stateMutability": "nonpayable",
            "type": "function"
        }
    ],
    "bytecode": {
        "object": "0x60e06040523480156200001157600080fd5b50604051620018da380380620018da833981016040819052620000349162000149565b3360009081526020818152604091829020600190556001600160a01b03831660808190528251635c1548fb60e01b815292519092635c1548fb9260048083019391928290030181865afa15801562000090573d6000803e3d6000fd5b505050506040513d601f19601f82011682018060405250810190620000b6919062000149565b6001600160a01b031660a0816001600160a01b0316815250506080516001600160a01b0316633b521d786040518163ffffffff1660e01b8152600401602060405180830381865afa15801562000110573d6000803e3d6000fd5b505050506040513d601f19601f8201168201806040525081019062000136919062000149565b6001600160a01b031660c052506200017b565b6000602082840312156200015c57600080fd5b81516001600160a01b03811681146200017457600080fd5b9392505050565b60805160a05160c05161170d620001cd6000396000818160f3015281816103b2015261092701526000818161028f015281816103d801526109010152600081816102680152610612015261170d6000f3fe608060405234801561001057600080fd5b50600436106100d45760003560e01c80638bad0c0a11610081578063d2f7265a1161005b578063d2f7265a14610263578063d8dfeb451461028a578063f23a6e61146102b157600080fd5b80638bad0c0a146101dc578063bc197c81146101e4578063d2539b371461025057600080fd5b8063425c2096116100b2578063425c209614610188578063429b62e51461019b57806370480275146101c957600080fd5b80631785f53c146100d957806322a9339f146100ee57806324d7806c1461013f575b600080fd5b6100ec6100e7366004610d72565b6102c4565b005b6101157f000000000000000000000000000000000000000000000000000000000000000081565b60405173ffffffffffffffffffffffffffffffffffffffff90911681526020015b60405180910390f35b61017861014d366004610d72565b73ffffffffffffffffffffffffffffffffffffffff1660009081526020819052604090205460011490565b6040519015158152602001610136565b6100ec610196366004610d8d565b61035f565b6101bb6101a9366004610d72565b60006020819052908152604090205481565b604051908152602001610136565b6100ec6101d7366004610d72565b61046c565b6100ec610508565b61021f6101f2366004610e4e565b7fbc197c810000000000000000000000000000000000000000000000000000000098975050505050505050565b6040517fffffffff000000000000000000000000000000000000000000000000000000009091168152602001610136565b6100ec61025e3660046111d8565b61058c565b6101157f000000000000000000000000000000000000000000000000000000000000000081565b6101157f000000000000000000000000000000000000000000000000000000000000000081565b61021f6102bf3660046112e1565b610691565b3360009081526020819052604090205460011461030d576040517f7bfa4b9f00000000000000000000000000000000000000000000000000000000815260040160405180910390fd5b73ffffffffffffffffffffffffffffffffffffffff81166000818152602081905260408082208290555133917f787a2e12f4a55b658b8f573c32432ee11a5e8b51677d1e1e937aaf6a0bb5776e91a350565b336000908152602081905260409020546001146103a8576040517f7bfa4b9f00000000000000000000000000000000000000000000000000000000815260040160405180910390fd5b600082156103d6577f00000000000000000000000000000000000000000000000000000000000000006103f8565b7f00000000000000000000000000000000000000000000000000000000000000005b905061040781308686866106bd565b6040805173ffffffffffffffffffffffffffffffffffffffff808416825286166020820152908101849052606081018390527f6ce49f8691a80db5eb4f60cd55b14640529346a7ddf9bf8f77a423fa6a10bfdb9060800160405180910390a150505050565b336000908152602081905260409020546001146104b5576040517f7bfa4b9f00000000000000000000000000000000000000000000000000000000815260040160405180910390fd5b73ffffffffffffffffffffffffffffffffffffffff8116600081815260208190526040808220600190555133917ff9ffabca9c8276e99321725bcb43fb076a6c66a54b7f21c4e8146d8519b417dc91a350565b33600090815260208190526040902054600114610551576040517f7bfa4b9f00000000000000000000000000000000000000000000000000000000815260040160405180910390fd5b336000818152602081905260408082208290555182917f787a2e12f4a55b658b8f573c32432ee11a5e8b51677d1e1e937aaf6a0bb5776e91a3565b336000908152602081905260409020546001146105d5576040517f7bfa4b9f00000000000000000000000000000000000000000000000000000000815260040160405180910390fd5b6040517fe60f0c0500000000000000000000000000000000000000000000000000000000815273ffffffffffffffffffffffffffffffffffffffff7f0000000000000000000000000000000000000000000000000000000000000000169063e60f0c059061064d90889088908890889060040161151a565b600060405180830381600087803b15801561066757600080fd5b505af115801561067b573d6000803e3d6000fd5b5050505061068a848383610711565b5050505050565b7ff23a6e61000000000000000000000000000000000000000000000000000000005b9695505050505050565b801561068a57816000036107045773ffffffffffffffffffffffffffffffffffffffff841630146106f9576106f485858584610789565b61068a565b6106f485848361079b565b6106f485858585856107ab565b825160005b8181101561068a5782858281518110610731576107316115ea565b60200260200101516101200151111561078157610781858281518110610759576107596115ea565b6020026020010151858381518110610773576107736115ea565b602002602001015185610857565b600101610716565b610795848484846109d1565b50505050565b6107a6838383610a95565b505050565b6040517ff242432a00000000000000000000000000000000000000000000000000000000815273ffffffffffffffffffffffffffffffffffffffff85811660048301528481166024830152604482018490526064820183905260a06084830152600060a483015286169063f242432a9060c401600060405180830381600087803b15801561083857600080fd5b505af115801561084c573d6000803e3d6000fd5b505050505050505050565b6101208301516000906108b0908383876101400151600181111561087d5761087d611359565b14610888578561089b565b61089b868860a001518960c00151610b4e565b8760a001518860c00151896101400151610b7f565b905060008085610140015160018111156108cc576108cc611359565b146108d85760006108de565b84608001515b905060008086610140015160018111156108fa576108fa611359565b14610925577f0000000000000000000000000000000000000000000000000000000000000000610947565b7f00000000000000000000000000000000000000000000000000000000000000005b905082156109c9576109608130886020015185876106bd565b6020808701516040805173ffffffffffffffffffffffffffffffffffffffff808616825290921692820192909252908101839052606081018490527f18fe0464eb77016dc4e227eb0d690e4002756d82b442143bbfb874548952b5f29060800160405180910390a15b505050505050565b60006040517f23b872dd0000000000000000000000000000000000000000000000000000000081528460048201528360248201528260448201526020600060648360008a5af13d15601f3d116001600051141617169150508061068a576040517f08c379a000000000000000000000000000000000000000000000000000000000815260206004820152601460248201527f5452414e534645525f46524f4d5f4641494c454400000000000000000000000060448201526064015b60405180910390fd5b60006040517fa9059cbb000000000000000000000000000000000000000000000000000000008152836004820152826024820152602060006044836000895af13d15601f3d1160016000511416171691505080610795576040517f08c379a000000000000000000000000000000000000000000000000000000000815260206004820152600f60248201527f5452414e534645525f4641494c454400000000000000000000000000000000006044820152606401610a8c565b600082600003610b6057506000610b78565b82610b6b8386611648565b610b759190611685565b90505b9392505050565b6000858711610b90575060006106b3565b6000610b9f8887878787610bd3565b905086600003610bb05790506106b3565b610bbd8787878787610bd3565b610bc790826116c0565b98975050505050505050565b60008515610cbb576000610be8858585610cc4565b9050600081118015610c025750670de0b6b3a76400008111155b15610cb9576000836001811115610c1b57610c1b611359565b03610c6d57610c2c61271082611648565b86610c4883610c4381670de0b6b3a76400006116c0565b610d33565b610c52908a611648565b610c5c9190611648565b610c669190611685565b9150610cb9565b610c81670de0b6b3a7640000612710611648565b86610c9883610c4381670de0b6b3a76400006116c0565b610ca2908a611648565b610cac9190611648565b610cb69190611685565b91505b505b95945050505050565b600080826001811115610cd957610cd9611359565b03610d115782600003610ced576000610d0a565b82610d00670de0b6b3a764000086611648565b610d0a9190611685565b9050610b78565b83600003610d20576000610b75565b83610b6b670de0b6b3a764000085611648565b6000818310610d425781610b78565b5090919050565b803573ffffffffffffffffffffffffffffffffffffffff81168114610d6d57600080fd5b919050565b600060208284031215610d8457600080fd5b610b7882610d49565b600080600060608486031215610da257600080fd5b610dab84610d49565b95602085013595506040909401359392505050565b60008083601f840112610dd257600080fd5b50813567ffffffffffffffff811115610dea57600080fd5b6020830191508360208260051b8501011115610e0557600080fd5b9250929050565b60008083601f840112610e1e57600080fd5b50813567ffffffffffffffff811115610e3657600080fd5b602083019150836020828501011115610e0557600080fd5b60008060008060008060008060a0898b031215610e6a57600080fd5b610e7389610d49565b9750610e8160208a01610d49565b9650604089013567ffffffffffffffff80821115610e9e57600080fd5b610eaa8c838d01610dc0565b909850965060608b0135915080821115610ec357600080fd5b610ecf8c838d01610dc0565b909650945060808b0135915080821115610ee857600080fd5b50610ef58b828c01610e0c565b999c989b5096995094979396929594505050565b7f4e487b7100000000000000000000000000000000000000000000000000000000600052604160045260246000fd5b6040516101a0810167ffffffffffffffff81118282101715610f5c57610f5c610f09565b60405290565b604051601f82017fffffffffffffffffffffffffffffffffffffffffffffffffffffffffffffffe016810167ffffffffffffffff81118282101715610fa957610fa9610f09565b604052919050565b803560028110610d6d57600080fd5b803560038110610d6d57600080fd5b600082601f830112610fe057600080fd5b813567ffffffffffffffff811115610ffa57610ffa610f09565b61102b60207fffffffffffffffffffffffffffffffffffffffffffffffffffffffffffffffe0601f84011601610f62565b81815284602083860101111561104057600080fd5b816020850160208301376000918101602001919091529392505050565b60006101a0828403121561107057600080fd5b611078610f38565b90508135815261108a60208301610d49565b602082015261109b60408301610d49565b60408201526110ac60608301610d49565b60608201526080820135608082015260a082013560a082015260c082013560c082015260e082013560e08201526101008083013581830152506101208083013581830152506101406110ff818401610fb1565b90820152610160611111838201610fc0565b908201526101808281013567ffffffffffffffff81111561113157600080fd5b61113d85828601610fcf565b82840152505092915050565b600067ffffffffffffffff82111561116357611163610f09565b5060051b60200190565b600082601f83011261117e57600080fd5b8135602061119361118e83611149565b610f62565b82815260059290921b840181019181810190868411156111b257600080fd5b8286015b848110156111cd57803583529183019183016111b6565b509695505050505050565b600080600080600060a086880312156111f057600080fd5b853567ffffffffffffffff8082111561120857600080fd5b61121489838a0161105d565b965060209150818801358181111561122b57600080fd5b8801601f81018a1361123c57600080fd5b803561124a61118e82611149565b81815260059190911b8201840190848101908c83111561126957600080fd5b8584015b838110156112a1578035868111156112855760008081fd5b6112938f898389010161105d565b84525091860191860161126d565b5098505050506040880135945060608801359150808211156112c257600080fd5b506112cf8882890161116d565b95989497509295608001359392505050565b60008060008060008060a087890312156112fa57600080fd5b61130387610d49565b955061131160208801610d49565b94506040870135935060608701359250608087013567ffffffffffffffff81111561133b57600080fd5b61134789828a01610e0c565b979a9699509497509295939492505050565b7f4e487b7100000000000000000000000000000000000000000000000000000000600052602160045260246000fd5b6002811061139857611398611359565b9052565b6003811061139857611398611359565b6000815180845260005b818110156113d2576020818501810151868301820152016113b6565b818111156113e4576000602083870101525b50601f017fffffffffffffffffffffffffffffffffffffffffffffffffffffffffffffffe0169290920160200192915050565b60006101a0825184526020830151611447602086018273ffffffffffffffffffffffffffffffffffffffff169052565b50604083015161146f604086018273ffffffffffffffffffffffffffffffffffffffff169052565b506060830151611497606086018273ffffffffffffffffffffffffffffffffffffffff169052565b506080830151608085015260a083015160a085015260c083015160c085015260e083015160e0850152610100808401518186015250610120808401518186015250610140808401516114eb82870182611388565b5050610160808401516115008287018261139c565b50506101808084015182828701526106b3838701826113ac565b60808152600061152d6080830187611417565b6020838203818501528187518084528284019150828160051b850101838a0160005b8381101561159b577fffffffffffffffffffffffffffffffffffffffffffffffffffffffffffffffe0878403018552611589838351611417565b9486019492509085019060010161154f565b50506040870189905286810360608801528751808252908401945091505081860160005b828110156115db578151855293830193908301906001016115bf565b50929998505050505050505050565b7f4e487b7100000000000000000000000000000000000000000000000000000000600052603260045260246000fd5b7f4e487b7100000000000000000000000000000000000000000000000000000000600052601160045260246000fd5b6000817fffffffffffffffffffffffffffffffffffffffffffffffffffffffffffffffff048311821515161561168057611680611619565b500290565b6000826116bb577f4e487b7100000000000000000000000000000000000000000000000000000000600052601260045260246000fd5b500490565b6000828210156116d2576116d2611619565b50039056fea2646970667358221220b510ac004bc049628d3b41bc471e9cb938e6710ca33ed6b33fa3725aed27a52164736f6c634300080f0033",
        "linkReferences": {}
    },
    "methodIdentifiers": {
        "addAdmin(address)": "70480275",
        "admins(address)": "429b62e5",
        "collateral()": "d8dfeb45",
        "ctf()": "22a9339f",
        "exchange()": "d2f7265a",
        "isAdmin(address)": "24d7806c",
        "matchOrders((uint256,address,address,address,uint256,uint256,uint256,uint256,uint256,uint256,uint8,uint8,bytes),(uint256,address,address,address,uint256,uint256,uint256,uint256,uint256,uint256,uint8,uint8,bytes)[],uint256,uint256[],uint256)": "d2539b37",
        "onERC1155BatchReceived(address,address,uint256[],uint256[],bytes)": "bc197c81",
        "onERC1155Received(address,address,uint256,uint256,bytes)": "f23a6e61",
        "removeAdmin(address)": "1785f53c",
        "renounceAdmin()": "8bad0c0a",
        "withdrawFees(address,uint256,uint256)": "425c2096"
    },
    "id": 24
}